:060000000A128A11F32C24
:1008C6008312031308168816871307138716080062
:1008D6005034493443344B34203443344F344D344C
:1008E60050344C34453454344534443400347E0852
:1008F6008A007F0882007A240A128A118000840AFC
:1009060004087D0603190034FF0A0319FE0A7E2C2B
:100916008312031388160230F2000330F100BA3056
:10092600F000F00B942CF10B942CF20B942C831208
:10093600031308128717071387120800831203137D
:1009460008160230F2000330F100BA30F000F00B66
:10095600AA2CF10BAA2CF20BAA2C831203138812D1
:100966008713071787120800F20072088312031311
:1009760086000710871007150330F1009730F00046
:10098600F00BC32CF10BC32CC82C831203130711D5
:100996000330F1009730F000F00BCF2CF10BCF2C89
:1009A600D42C0800F2007208831203138600071481
:1009B600871007150330F1009730F000F00BE12C9B
:1009C600F10BE12CE62C8312031307110330F1001F
:1009D6009730F000F00BED2CF10BED2CF22C08000B
:1009E6008313AF30FD000430FE006B30FF00A030F3
:1009F60084000A128A117E240A128A116930FD00C7
:100A06000530FE00A430FF00203084000A128A114F
:100A16007E240A128A1183010A128A11ED2D3830BA
:100A26000A128A11B7240A128A110C300A128A1184
:100A3600B7240A128A1106300A128A11B7240A123A
:100A46008A1101300A128A11B7240A128A11073054
:100A5600F4007D30F300F30B2E2DF40B2E2D080041
:100A6600F4000310003003180130F5004B2D750813
:100A76007407F30073088400831300080A128A11AE
:100A8600D5240A128A110130F3007308F5074B2D9D
:100A960075087407F3007308840083138008031D28
:100AA600552D562D3A2D572D08008312031308167F
:100AB60088168713071387160A128A1112250A1237
:100AC6008A1180300A128A11B7240A128A11533009
:100AD6000A128A1133250A128A11762D08168816EB
:100AE6008716871307138312031305187B2D7C2D96
:100AF600712D8712080083120313081688168713B0
:100B0600071387160A128A1112250A128A118030D3
:100B16000A128A11B7240A128A115E300A128A1141
:100B260033250A128A119C2D0816881687168713F4
:100B36000713831203138518A12DA22D972D871253
:100B460008004D344F3454344F3452342034533427
:100B560054344F34503400344E344B3420345034F3
:100B66004F3457344534523420344C344F344F3498
:100B76004D3400344D344F3454344F3452342034D1
:100B8600523455344E344E3449344E34473400349E
:100B9600533449344E3447344C344534203450347D
:100BA600493443344B34003457344134523450348E
:100BB60020344534523452344F345234003457348E
:100BC60045344634543420344534523452344F3448
:100BD600523400340630831603139F00FF3085001D
:100BE600860187010F308800831203138501860171
:100BF60087018801081688160817871207138713B6
:100C060087150A128A1112250A128A1180300A12D1
:100C16008A11B7240A128A112B300A128A11332537
:100C26000A128A110630F8000E30F700B030F600CE
:100C3600F60B1B2EF70B1B2EF80B1B2E222E8312E8
:100C46000313051C272E282E502E0A128A1158250A
:100C56000A128A112E2E831203130518332E342EF0
:100C66002E2E352E8230F700DD30F600F60B392EAB
:100C7600F70B392E3E2E0A128A1112250A128A11F4
:100C860080300A128A11B7240A128A112B300A12EE
:100C96008A1133250A128A11502E83120313851CDA
:100CA600552E562E7E2E0A128A117E250A128A117A
:100CB6005C2E831203138518612E622E5C2E632E22
:100CC6008230F700DD30F600F60B672EF70B672E45
:100CD6006C2E0A128A1112250A128A1180300A1203
:100CE6008A11B7240A128A112B300A128A11332567
:100CF6000A128A117E2E83120313081C832E842E59
:100D0600D22E4130F700EE30F600F60B882EF70BA8
:100D1600882E640083120313081C922E932ED22E63
:100D2600051C962E972E9D2E0A128A1158250A12F8
:100D36008A11C02E851CA02EA12EA72E0A128A115A
:100D46007E250A128A11C02E0A128A118B240A12D3
:100D56008A110A128A1112250A128A1180300A1281
:100D66008A11B7240A128A1139300A128A113325D8
:100D76000A128A11C02EC02EC02E83120313081821
:100D8600C52EC62EC02EC72E4130F700EE30F60017
:100D9600F60BCB2EF70BCB2E6400D22ED22E83125F
:100DA6000313081DD72ED82ECE2F4130F700EE3074
:100DB600F600F60BDC2EF70BDC2E64008312031311
:100DC600081DE62EE72ECE2F051CEA2EEB2EF12E61
:100DD6000A128A1158250A128A11BC2F851CF42E74
:100DE600F52EFB2E0A128A117E250A128A11BC2FB5
:100DF6000A128A118B240A128A110A128A111225E2
:100E06000A128A1180300A128A11B7240A128A112C
:100E160047300A128A1133250A128A1183120313E4
:100E2600071787138712372F051C1A2F1B2F222F00
:100E36000A128A1158250A128A11FD2FFD2F851CC8
:100E4600252F262F2D2F0A128A117E250A128A1186
:100E5600FD2FFD2F881C302F312F372F0A128A11B4
:100E660063240A128A113E2F83120313051D3C2F99
:100E76003D2F172F3E2F0A128A1163240A128A1158
:100E86000330F8008830F7005630F600F60B492F8D
:100E9600F70B492FF80B492F0A128A11A1240A12BF
:100EA6008A11831203130717871387127A2F051CDB
:100EB6005D2F5E2F652F0A128A1158250A128A1194
:100EC600FD2FFD2F851C682F692F702F0A128A119E
:100ED6007E250A128A11FD2FFD2F881C732F742F71
:100EE6007A2F0A128A1163240A128A11812F831219
:100EF6000313851D7F2F802F5A2F812F0A128A11E7
:100F060063240A128A1183120313871707138712A1
:100F16000A128A1112250A128A1180300A128A11BF
:100F2600B7240A128A11A0300A128A1133250A122E
:100F36008A110630F8000E30F700B030F600F60BD6
:100F4600A22FF70BA22FF80BA22F0A128A11122535
:100F56000A128A1180300A128A11B7240A128A11DB
:100F66002B300A128A1133250A128A11BC2FBC2F84
:100F7600BC2F831203130819C12FC22FBC2FC32FF6
:100F86004130F700EE30F600F60BC72FF70BC72FF0
:100F96006400CE2FCE2F83120313881CD32FD42F99
:100FA600222E4130F700EE30F600F60BD82FF70B65
:100FB600D82F640083120313881CE22FE32F222EFE
:100FC6000A128A1163240A128A11E92F8312031363
:100FD6008818EE2FEF2FE92FF02F4130F700EE3073
:100FE600F600F60BF42FF70BF42F6400222E222EB8
:0A0FF600222E222E0A128A11002872
:02400E00723FFF
:00000001FF
